:100000000C948A010C94B2010C94B2010C94B201CC
:100010000C94B2010C94B2010C94B2010C94B20194
:100020000C94B2010C94B2010C94B2010C94B20184
:100030000C94B2010C94B2010C94B2010C94B20174
:100040000C9419200C94B2010C9404210C944B21B3
:100050000C94B2010C94B2010C94B2010C94B20154
:100060000C94B2010C94B2010C0005000D001000BC
:1000700011004400340043003C000F00060007005C
:100080001F002F004200C000C500CD00D400D900E1
:10009000DE00E500EC00F200FA00FF0005010B01B4
:1000A000110117011F012B01370143014F015901B4
:1000B000630170017B0184018B019601A001AC01F9
:1000C00052504D3A00456E67546D703A005370655A
:1000D00065643A004D41463A005450533A004F4C43
:1000E0004146523A0057424146523A004C6F6164D1
:1000F0003A00436174546D703A004941543A0053D8
:100100005446543A004C5446543A0052756E543A90
:10011000004675656C3A00436F6E74726C3A004528
:100120004355204D6F6E69746F72004D696C657335
:1001300050657247616C00576865656C2053706547
:10014000656400576865656C205072657373005470
:10015000657874204D6F64650053657420436C6F3F
:10016000636B0054726F75626C65436F64657300F6
:1001700053797374656D204F6666005265737054D1
:10018000696D65004176674D504700576865656C3D
:100190002054656D7000456469742054657874005E
:1001A00053657474696E6720436C6B004D494C2035
:1001B000436C6561720000000000240027002A00E3
:1001C00000000000250028002B0000000000230094
:1001D00026002900040404040404040402020202A8
:1001E00002020303030303030102040810204080FA
:1001F000010204081020010204081020000000077A
:1002000000020100000304060000000000000000DE
:1002100000407A10F35A00A0724E18090010A5D4BD
:10022000E80000E87648170000E40B54020000CA1A
:100230009A3B000000E1F505000080969800000060
:1002400040420F000000A0860100000010270000BF
:100250000000E803000000006400000000000A0045
:10026000000000000100000000002C76D888DC6748
:100270004F0823DFC1DFAE59E1B1B796E5E3E453A0
:10028000C63AE651997696E8E6C28426EB898C9BBD
:1002900062ED407C6FFCEFBC9C9F40F2BAA56FA55D
:1002A000F490055A2AF75C936B6CF9676DC11BFCDF
:1002B000E0E40D47FEF520E6B500D0ED902E0300FA
:1002C000943577050080841E080000204E0A000047
:1002D00000C80C333333330F986E12831141EF8D06
:1002E0002114893BE65516CFFEE6DB18D1844B3846
:1002F0001BF77C1D901DA4BBE424203284725E2277
:100300008100C9F124ECA1E53D270F20B122D127BE
:100310001420D62711241FBECFEFD8E0DEBFCDBFFB
:1003200015E0A0E0B1E0E0E6F6E602C005900D922F
:10033000A63AB107D9F716E0A6EAB5E001C01D92CA
:10034000AD3EB107E1F713E0C0E1D3E004C022976E
:10035000FE010E94F72ACA30D107C9F70E94012383
:100360000C9423330C9400008130910539F489E119
:1003700096E060E071E00E94D3260895009721F492
:1003800089E196E00E94C5270895CF93DF93CDB70A
:10039000DEB72A970FB6F894DEBF0FBECDBF86E05A
:1003A00090E09A8789878AE090E098878F838CEE27
:1003B00095E0BE01675F7F4FAE01495F5F4F0E94CE
:1003C000650D882309F472C000D081E091E0EDB79B
:1003D000FEB7928381830E947C191A820F900F903E
:1003E0008CEE95E0BE016E5F7F4F0E94210D882349
:1003F00059F400D084E191E0EDB7FEB79283818398
:100400000E947C190F900F9084E090E09E838D8372
:1004100089E090E09C838B838AEE95E0BE016B5F60
:100420007F4FAE014D5F5F4F0E94650D8823D1F174
:1004300000D080E391E0EDB7FEB7928381830E9404
:100440007C1919820F900F908AEE95E0BE016F5FC4
:100450007F4F0E94210D882359F400D083E491E05E
:10046000EDB7FEB7928381830E947C190F900F90A5
:1004700000D08FE591E0EDB7FEB7928381830E94B3
:100480007C190F900F9083EA93E06AEE75E04EEED0
:1004900055E00E94D71A68EE73E080E090E00E9479
:1004A0006F200FC000D089E791E003C000D087EA39
:1004B00091E0EDB7FEB7928381830E947C190F9083
:1004C0000F902A960FB6F894DEBF0FBECDBFDF9116
:1004D000CF910895CF93DF9300D000D085ED91E0C8
:1004E000ADB7BEB712969C938E93119781E090E0C2
:1004F00014969C938E9313970E947C191092F10589
:100500001092F0050F900F900F900F900E94C5165B
:10051000E091F005F091F105EE0FFF1FE859FF4F54
:10052000E491E093F2051092F30500D000D0ADB74E
:10053000BEB7119685EE91E0CDB7DEB79A83898379
:100540001296EC93129713961C920E947C191092AB
:10055000EF051092EE05E6E8F0E0659174910F90DA
:100560000F900F900F90C4EFD5E0CE010E943D2D6B
:1005700000D000D08EEF91E0EDB7FEB7928381837B
:10058000D483C3830E947C19E4EAF0E065917491FE
:100590000F900F900F900F90CDEFD5E0CE010E94FD
:1005A0003D2D00D000D088E192E0ADB7BEB71296E5
:1005B0009C938E9311971496DC93CE9313970E947D
:1005C0007C190F900F900F900F9086EA95E060E0F5
:1005D00070E041E150E00E94E12F8091A6059091EA
:1005E000A7058632910591F086E290E09093A705E9
:1005F0008093A60584E690E09093A9058093A805D2
:100600008AEA95E060EB73E00E945D2DC9E0D6E0D8
:10061000CE016AEA75E00E945D2D00D000D08FE225
:1006200092E0EDB7FEB792838183D483C3830E94A7
:100630007C198091A8059091A90590931706809345
:10064000160621E432E0ADB7BEB712963C932E9366
:10065000119714969C938E9313970E947C1900D047
:10066000EDB7FEB73196C7EBD5E0ADB7BEB7129682
:10067000DC93CE93119783E592E09383828389EE96
:1006800095E0958384830E94B62D0F900F908DE6A0
:1006900092E0EDB7FEB792838183D483C3830E9437
:1006A0007C190F900F900F900F90DF91CF910895CC
:1006B0008AEC96E040E052EC61E070E00E94862116
:1006C0000E94CD1D0E946A020E94C50108952091DA
:1006D000A8053091A9058091160690911706281754
:1006E000390711F100D000D081E792E0EDB7FEB7F5
:1006F0009283818381E090E0948383830E947C19BC
:1007000080911606909117069093A9058093A805ED
:100710000F900F900F900F9086EA95E060E070E0E8
:1007200041E150E00E94F12F8AEA95E069E076E02D
:100730000E94542D009701F100D000D084E892E08F
:10074000EDB7FEB79283818381E090E09483838349
:100750000E947C190F900F900F900F908AEA95E0FD
:1007600069E076E00E945D2D86EA95E060E070E049
:1007700041E150E00E94F12F08958091EE059091A3
:10078000EF058430910559F18B30910529F40E94D1
:10079000670384E090E00895009721F18830910587
:1007A00029F40E94670380E090E008958530910568
:1007B000E1F08C309105E1F081309105E1F0893074
:1007C0009105E1F083309105E1F08A309105E1F087
:1007D00086309105E1F08D309105F1F41BC08BE07E
:1007E00090E0089588E090E008958CE090E008950E
:1007F00085E090E0089589E090E0089581E090E040
:1008000008958AE090E0089583E090E008958DE0F7
:1008100090E0089586E090E00895EF92FF920F93A4
:100820001F93CF93DF9300D000D000D0CDB7DEB7B9
:100830007B01FC018081918181319105A9F0823198
:1008400091054CF48F30910509F466C08031910513
:1008500009F0A9C12FC18231910509F482C1833108
:10086000910509F0A0C1F4C08091EE059091EF05CB
:10087000009751F48091F0059091F1058E3091052B
:100880000CF08EC1019658C08B30910549F4E0916F
:100890002906F0912A06E75FF94F80818150A2C0B6
:1008A0008830910559F48091160690911706181614
:1008B00019060CF075C1845690409FC08530910593
:1008C00019F40E947E177EC08330910519F08A309A
:1008D000910551F48091BD039091BE038430910540
:1008E0000CF05EC101969DC08630910551F4809157
:1008F000BF039091C003833091050CF051C1019664
:10090000A2C08D30910509F04BC18CEE95E06AEEE6
:1009100075E00E94A81B44C18091EE059091EF05FF
:10092000009709F04AC08091F0059091F1051816E2
:1009300019060CF035C101979093F1058093F005ED
:1009400000D000D086E992E0EDB7FEB792838183B4
:10095000148213820E947C19E091F005F091F10558
:10096000EE0FFF1FEA57FF4F659174910F900F90A4
:100970000F900F9004EF15E0C8010E943D2DE0910B
:10098000F005F091F105EE0FFF1FE859FF4FE491DC
:10099000E093F2051092F30500D000D08DE692E0CE
:1009A000EDB7FEB792838183148303830E947C1981
:1009B0000F900F900F900F90F3C08530910539F490
:1009C0000E94171768EC70E080E090E0E7C08B3081
:1009D000910551F4E0912906F0912A06E75FF94F5D
:1009E00080818F5F8083DCC08830910559F48091CD
:1009F0001606909117068C599F4F90931706809377
:100A00001606CEC08330910519F08A30910571F435
:100A10008091BD039091BE03823091050CF4C0C05B
:100A200001979093BE038093BD03BAC086309105B1
:100A300009F0B6C08091BF039091C0038230910548
:100A40000CF4AEC001979093C0038093BF03A8C07D
:100A5000E091EE05F091EF05EB30F10551F4809156
:100A6000290690912A06181619060CF099C00197CC
:100A700031C03197E730F10508F092C0F093EF05EF
:100A8000E093EE05EE0FFF1FEC55FF4F659174915B
:100A90008DEF95E00E943D2D84E190E09E838D8353
:100AA0008DEF95E06AEE75E04EEE55E09E012B5F0E
:100AB0003F4F54C0E091EE05F091EF05EB30F105AA
:100AC00071F48091290690912A068D3091050CF0E1
:100AD00067C0019690932A068093290661C0E7308B
:100AE000F105FCF43196F093EF05E093EE05EE0F7F
:100AF000FF1FEC55FF4F659174918DEF95E00E94BB
:100B00003D2D84E190E09C838B838DEF95E06AEE30
:100B100075E04EEE55E09E012D5F3F4F0E94441B55
:100B200039C0E730F10509F03BC01092EF05109293
:100B3000EE05E4EAF0E0659174918DEF95E00E9496
:100B40003D2D84E190E09A8389838DEF95E06AEEF4
:100B500075E04EEE55E09E012F5F3F4F0E94441B13
:100B60001FC00E94BD039093EF058093EE05FC012A
:100B7000EE0FFF1FEC55FF4F659174918DEF95E0DF
:100B80000E943D2D8DEF95E06AEE75E04EEE55E04A
:100B90000E94D71A64E670E080E090E00E946F2027
:100BA00081E0F701808326960FB6F894DEBF0FBE72
:100BB000CDBFDF91CF911F910F91FF90EF900895DE
:100BC000CF93DF93CDB7DEB76A970FB6F894DEBF49
:100BD0000FBECDBF8CEE95E068E176E00E940E1965
:100BE000882309F0EAC0CE010A966CEE75E00E94F7
:100BF000D118882309F4F3C019828F89883341F111
:100C00008091240690912506A0912606B091270692
:100C10000097A105B105E1F080E190E09987888710
:100C2000CE010896BE016F5F7F4F0E940D041092A7
:100C3000240610922506109226061092270681E0BF
:100C4000809328068AEC96E065EA72E00E9484248C
:100C50008F898C39F9F0863D21F0883309F0A3C0E3
:100C600037C000D000D081EB92E0EDB7FEB79283A1
:100C7000818381E090E0948383830E947C198FE0DC
:100C800090E09F838E830F900F900F900F90CE0176
:100C9000069618C000D000D08FEB92E0EDB7FEB7FB
:100CA0009283818381E090E0948383830E947C1906
:100CB00081E190E09D838C830F900F900F900F90B7
:100CC000CE010496BE016F5F7F4F0E940D046BC082
:100CD00000D000D08FEC92E0EDB7FEB79283818315
:100CE00081E090E0948383830E947C190F900F90A1
:100CF0000F900F908091240690912506A0912606D2
:100D0000B09127060097A105B105A9F40E946120C2
:100D1000DC01CB018093240690932506A093260640
:100D2000B09327068AEC96E061EE72E00E9484247C
:100D30001092280638C00E946120DC01CB0140914E
:100D40002406509125066091260670912706841B83
:100D5000950BA60BB70B893EF3E09F07F0E0AF07BA
:100D6000F0E0BF0700F1809128068823E1F48AECC7
:100D700096E06FEE72E00E94842482E190E09B8313
:100D80008A83CE010296BE016F5F7F4F0E940D04E1
:100D900081E0809328061092240610922506109276
:100DA00026061092270689818823C9F06DE770E036
:100DB00080E090E00E946F2012C000D000D080E060
:100DC00093E0EDB7FEB79283818381E090E0948356
:100DD00083830E947C190F900F900F900F906A965A
:100DE0000FB6F894DEBF0FBECDBFDF91CF9108954F
:100DF0008F929F92AF92BF92CF92DF92EF92FF922B
:100E00000F931F93CF93DF93CDB7DEB7C855D04074
:100E10000FB6F894DEBF0FBECDBF7C018DB69EB677
:100E20001982CE018E5A9F4F67E273E00E94D3264B
:100E3000C701BE016E5A7F4F0E94BD258C01CE01B5
:100E40008E5A9F4F0E94C5270115110519F40C9465
:100E500000009BC1CE01855B9F4FB70140E050E091
:100E600023E030E00E945127CE01855B9F4F6BE26B
:100E700073E00E949A25082FCE01855B9F4F0E9448
:100E8000C527002309F452C0DDB6CEB6F7010481B0
:100E900015818DB79EB7801B910B0FB6F8949EBF3E
:100EA0000FBE8DBFADB6BEB60894A11CB11CCE015D
:100EB0008C5B9F4F6FE273E00E94D326C701BE0197
:100EC0006C5B7F4F0E9468259C012F5F3F4FC701DD
:100ED000B501A8010E946D25CE018C5B9F4F0E9439
:100EE000C52709E016E0C801B5010E945D2D00D0BC
:100EF00000D081E393E0EDB7FEB792838183148243
:100F000013820E947C19EDB7FEB71283018381E042
:100F100090E0948383830E947C190F900F900F9030
:100F20000F900E946703DDBECEBE2FC1CE01CD96CD
:100F300065E473E00E94D326C701BE01635C7F4F66
:100F40000E94BD258C01CE01CD960E94C5270115BA
:100F5000110539F480E190E09B878A87CE010A96DB
:100F60001AC0CE01C6966AE473E00E94D326C70178
:100F7000BE016A5C7F4F0E94BD258C01CE01C696E2
:100F80000E94C5270115110561F483E190E099875E
:100F90008887CE010896BE016F5F7F4F0E940D04C7
:100FA000F4C0CE018F966FE473E00E94D326C70190
:100FB000BE01615D7F4F0E94BD258C01CE018F96E1
:100FC0000E94C5270115110539F48FE090E09F8339
:100FD0008E83CE010696DFCFCE01889662E573E060
:100FE0000E94D326C701BE01685D7F4F0E94BD25C8
:100FF0008C01CE0188960E94C5270115110539F490
:1010000081E190E09D838C83CE010496C4CFCE0114
:10101000819667E573E00E94D326C701BE016F5D2C
:101020007F4F0E94BD258C01CE0181960E94C5276D
:101030000115110539F482E190E09B838A83CE018A
:101040000296A9CFCE014A966BE573E00E94D326A3
:10105000C701BE01665E7F4F0E94BD258C01CE0197
:101060004A960E94C52701151105A9F400D000D0A9
:101070008FE593E0EDB7FEB79283818381E090E046
:10108000948383830E947C1987E090E09093EF051E
:101090008093EE0576C0CE0143966DE673E00E9424
:1010A000D326C701BE016D5E7F4F0E94BD258C0116
:1010B000CE0143960E94C5270115110559F400D0B1
:1010C00000D082E793E0EDB7FEB79283818381E0A1
:1010D00090E053C0CE010C966CE873E00E94D326DA
:1010E000C701BE01645F7F4F0E94BD258C01CE0108
:1010F0000C960E94C5270115110509F046C000D0C5
:1011000000D085EE91E0EDB7FEB7928381838091A8
:10111000F2059091F305948383830E947C198EEFEE
:1011200091E0EDB7FEB79283818384EF95E09483DD
:1011300083830E947C1988E192E0EDB7FEB7928329
:1011400081838DEF95E0948383830E947C198FE2E5
:1011500092E0EDB7FEB79283818389E096E09483B5
:1011600083830E947C1981E492E0EDB7FEB79283FD
:1011700081838091160690911706948383830E9441
:101180007C190F900F900F900F900FB6F8949EBEA1
:101190000FBE8DBEC85ADF4F0FB6F894DEBF0FBE2C
:1011A000CDBFDF91CF911F910F91FF90EF90DF9016
:1011B000CF90BF90AF909F908F900895FF920F9324
:1011C0001F93CF93DF93CDB7DEB76B970FB6F8942D
:1011D000DEBF0FBECDBF8E010B5E1F4FC80160E0AA
:1011E00071E00E94D3260E94E005F02E012F09C075
:1011F0008AEC96E00E943D22682F8F2D902F0E944E
:1012000053268AEC96E00E940C221816190684F3E5
:10121000CE010E9660E071E00E94D326CE01459685
:10122000BE01625F7F4F0E94BD258C01CE010E96EC
:101230000E94C5270115110521F0CE0145960E9497
:10124000F8068091EE059091EF058730910509F43D
:10125000F5C020911806222309F0F0C086309105D0
:1012600009F4AEC087309105BCF48230910509F4D1
:1012700061C0833091053CF4009759F181309105AC
:1012800009F0DCC044C08430910509F486C0853083
:1012900091050CF085C06BC08A30910509F472C0CD
:1012A0008B3091054CF48830910509F49BC089304E
:1012B000910509F0C3C02BC08C30910509F475C0AD
:1012C0008C3091050CF469C08D30910509F0B6C0E1
:1012D00080C08091F2059091F30598878F831E82DC
:1012E0001D82CE01079669E176E04CEE55E09E0145
:1012F0002B5F3F4F0E94CD1384EF95E069E176E0CC
:101300004AEE55E02EEE35E00E94941A97C089E12E
:1013100096E060E276E04EEE55E02CEE35E00AEE27
:1013200015E00E947C14882309F488C089E196E0C6
:10133000B80118C080EB94E09C838B831A821982D9
:10134000CE01039669E176E04CEE55E09E012F5FF9
:101350003F4F0E94CD13882309F470C089E196E0C5
:101360006AEE75E04EEE55E00E946C1B67C08DEB97
:1013700093E06EEE75E04AEE55E02CEE35E00E940B
:101380009E1E5CC08DEB93E06EEE75E04AEE55E07C
:101390002CEE35E00E94151E51C089E096E01BC07E
:1013A0008AEE95E00E94D21649C08AEE95E00E942E
:1013B000E51785E090E09093EF058093EE053EC041
:1013C0008CEE95E06AEE75E04FEB53E00E943C1C1A
:1013D00035C081E993E06AEE75E04EEE55E00E947B
:1013E000D71A2CC000D000D000D0EDB7FEB7319690
:1013F0008E01075F1F4FADB7BEB712961C930E93B9
:1014000011978CE993E093838283809116069091E3
:101410001706958384830E94B62D8DB79EB70696D6
:101420000FB6F8949EBF0FBE8DBFC8016FE973E081
:101430004AEE55E02EEE35E00E94041ACE014596A4
:101440000E94C5276B960FB6F894DEBF0FBECDBFC6
:10145000DF91CF911F910F91FF9008958EBD0DB434
:1014600007FEFDCF8EB508951F93CF93DF93EC0158
:10147000FB01808191818430910571F08530910567
:1014800024F48330910561F409C08530910591F011
:101490008630910529F40CC013E00DC014E00BC098
:1014A0008AEC96E062EC73E00E94842480E037C00E
:1014B00010E001C011E0888160E00E941A2882E0FB
:1014C0000E942E0A8AE20E942E0A812F0E942E0A72
:1014D000888161E00E941A28888160E00E941A28B1
:1014E00082E00E942E0A89E20E942E0A81EB0E946D
:1014F0002E0A888161E00E941A28888160E00E949B
:101500001A2882E00E942E0A88E20E942E0A85E0B4
:101510000E942E0A888161E00E941A2881E0DF91F2
:10152000CF911F910895EF92FF920F931F93CF9346
:10153000DF93EC017B018A01888160E00E941A2818
:1015400082E00E942E0AF70180810E942E0AF80193
:1015500080810E942E0A888161E00E941A28DF9112
:10156000CF911F910F91FF90EF900895CF92DF924E
:10157000EF92FF920F931F93CF93DF938C01EB01B8
:101580006A017901FC01808160E00E941A2885E0EF
:101590000E942E0A88810E942E0A81E090E0F601C6
:1015A000008002C0880F991F0A94E2F70E942E0A59
:1015B000F7018081882311F08FEF01C080E00E9445
:1015C0002E0AF801808161E00E941A28DF91CF91F4
:1015D0001F910F91FF90EF90DF90CF9008950F93A0
:1015E0001F93CF93DF938C01EB01FC01808160E0BE
:1015F0000E941A2883E00E942E0A88810E942E0AE7
:1016000080E00E942E0AC82FF801808161E00E94CC
:101610001A288C2FDF91CF911F910F910895CF93AE
:10162000DF930F92CDB7DEB72DE12983BE016F5F47
:101630007F4F0E94EF0A0F90DF91CF910895CF93D3
:10164000DF930F92CDB7DEB72CE12983BE016F5F28
:101650007F4F0E94EF0A0F90DF91CF9108958F92F4
:101660009F92AF92BF92CF92DF92EF92FF920F9331
:101670001F93CF93DF93CDB7DEB764970FB6F8947F
:10168000DEBF0FBECDBF6C017B018A010E946120CD
:101690004B015C01F80180819181A281B381880EA8
:1016A000991EAA1EBB1EF7018081918123E09695A9
:1016B00087952A95E1F791E39C8B8B8BC601BE0140
:1016C0006C5E7F4FAE014D5E5F4F0E94930AF70143
:1016D0008081918135E0880F991F3A95E1F7228149
:1016E0002111886092E39A8B898BC601BE016E5EE0
:1016F0007F4FAE014F5E5F4F0E94930AF7018281D8
:101700008823D9F0848193E3988B8F87C601BE012B
:10171000605F7F4FAE01415F5F4F0E94930AF70108
:10172000838194E39E878D87C601BE01625F7F4FF0
:10173000AE01435F5F4F0E94930AF701808590E0FE
:101740008F70907027812111806895E39C878B872B
:10175000C601BE01645F7F4FAE01455F5F4F0E94CF
:10176000930AF601808160E00E941A2882E00E94BC
:101770002E0A86E30E942E0A00E010E008C0F7015E
:10178000E00FF11F81850E942E0A0F5F1F4FF701A6
:10179000808590E00817190794F3F601808161E0D5
:1017A0000E941A2880E38A8783E0898781E08887FE
:1017B000C601BE01665F7F4FAE01475F5F4F9E016E
:1017C000285F3F4F0E94B60A0CE209C00F83C60192
:1017D000BE01695F7F4F0E94EF0A82FD0BC00E942D
:1017E0006120DC01CB0188159905AA05BB0570F3C2
:1017F00000E001C001E080E38E8383E08D831C82E2
:10180000C601BE016A5F7F4FAE014B5F5F4F9E0115
:101810002C5F3F4F0E94B60A8CE28B8382E08A8362
:101820001982C601BE016D5F7F4FAE014E5F5F4FF3
:101830009E012F5F3F4F0E94B60A802F64960FB61D
:10184000F894DEBF0FBECDBFDF91CF911F910F91F6
:10185000FF90EF90DF90CF90BF90AF909F908F90D0
:1018600008958F929F92AF92BF92CF92DF92EF92A4
:10187000FF920F931F93CF93DF9300D00F92CDB7BA
:10188000DEB74C015B018A010E9461206B017C0183
:10189000F80180819181A281B381C80ED91EEA1E10
:1018A000FB1E0E946120DC01CB018C159D05AE055D
:1018B000BF0508F0B9C08CE28B83C401BE016D5F27
:1018C0007F4F0E94EF0A80FD04C081FDAFC080E021
:1018D0009BC080E68A83C401BE016E5F7F4F0E9479
:1018E000EF0A00E011E091E083FF90E0F5019783BB
:1018F000F401808160E00E941A28112311F080E930
:1019000003C0002319F084E90E942E0AF501118218
:10191000108280E00E942E0A90E043E0880F991F19
:101920004A95E1F7F5019183808380E00E942E0AB9
:10193000482F50E09A0165E0359527956A95E1F7C3
:10194000F50180819181822B932B9183808381E0AB
:1019500043FF80E0F5018283138214821582168290
:10196000882351F180E00E942E0A582F40E066271C
:1019700057FD6095762FF50183819481A581B6810D
:10198000842B952BA62BB72B83839483A583B683B7
:1019900080E00E942E0A90E0A0E0B0E0F5014381D3
:1019A000548165817681482B592B6A2B7B2B43838D
:1019B00054836583768306C080E00E942E0A80E00F
:1019C0000E942E0A80E00E942E0A8F70F501808707
:1019D000893010F088E0808700E010E009C080E0E6
:1019E0000E942E0AF501E00FF11F81870F5F1F4F44
:1019F000F501808590E0081719078CF3F4018081C8
:101A000061E00E941A2881E00F900F900F90DF9103
:101A1000CF911F910F91FF90EF90DF90CF90BF90EB
:101A2000AF909F908F90089500E001C001E080E7A3
:101A30008983C401BE016F5F7F4F0E94EF0A10E0EF
:101A400052CF0F931F93CF93DF9300D000D0CDB729
:101A5000DEB78C01FB018081813041F0813018F0CC
:101A6000823061F407C087E08B8309C087E88B83ED
:101A700024E006C087E68B8323E002C01B8220E0BF
:101A80008FE08A83C801BE016E5F7F4FAE014D5F5C
:101A90005F4F2C830E94930A8EE08983C801BE01A8
:101AA0006F5F7F4F0E94EF0A982F929596959770DF
:101AB00081E02C81921380E00F900F900F900F9097
:101AC000DF91CF911F910F910895CF92DF92EF9206
:101AD000FF920F931F93CF93DF9300D0CDB7DEB764
:101AE0008C016B01FA0180819181F80191838083DF
:101AF0008AEC96E06FED73E00E948124F80160812A
:101B000071818AEC96E04AE050E00E946224F8017C
:101B1000808160E00E941A286AE070E080E090E036
:101B20000E946F2080EC0E942E0AF801808161E003
:101B30000E941A286AE070E080E090E00E946F2026
:101B400064E670E080E090E00E946F208EE08A837F
:101B5000C801BE016E5F7F4F0E94EF0AE82EFF248E
:101B6000A5E0F594E794AA95E1F78E2D8430C9F0AD
:101B700081E08983C801BE016F5F7F4F0E94210D04
:101B8000882379F48AEC96E069EF73E00E9481245F
:101B90008AEC96E06E2D42E050E00E94042480E042
:101BA0000AC08AEC96E06CE174E00E948424C801CB
:101BB000B6010E94340A0F900F90DF91CF911F91D0
:101BC0000F91FF90EF90DF90CF9008952F923F926A
:101BD0004F925F926F927F928F929F92AF92BF923D
:101BE000CF92DF92EF92FF920F931F93CF93DF93E9
:101BF000CDB7DEB72C970FB6F894DEBF0FBECDBFC2
:101C00006C012B017A01390118018FED97E0FA017F
:101C10009183808312821382148215821682178226
:101C200088E0808782E0818781E08287FB01808174
:101C3000FA0183871486158616861786108A8AEF1E
:101C4000882E912CA12CB12C89869A86AB86BC86D5
:101C5000C601BA01AE01475F5F4F0E942F0B882378
:101C600009F450C08D829E82AF82B886C601B7014A
:101C7000AE014B5F5F4F0E94310C91E0882309F465
:101C800090E0F30190839923C1F43CC089829A8249
:101C9000AB82BC82C601B701AE014F5F5F4F0E94AD
:101CA000310C91E0882309F490E0F30190839923AB
:101CB00049F10150104041F425C005E010E0BAEFB1
:101CC0008B2E912CA12CB12CF7019385F2018081F0
:101CD0009817E1F6F10190819923A1F0F70184852D
:101CE000913029F4082F10E020E030E00EC0182FCA
:101CF00000E0F7018585080F111D222717FD2095AB
:101D0000322F03C000E010E09801B801C9012C9601
:101D10000FB6F894DEBF0FBECDBFDF91CF911F91FC
:101D20000F91FF90EF90DF90CF90BF90AF909F907A
:101D30008F907F906F905F904F903F902F9008957D
:101D40004F925F926F927F928F929F92AF92BF92CB
:101D5000CF92DF92EF92FF920F931F93CF93DF9377
:101D6000CDB7DEB72C970FB6F894DEBF0FBECDBF50
:101D70005C014B018A0134E6C32ED12CE12CF12CFD
:101D8000C986DA86EB86FC86BA01AE01475F5F4FF3
:101D90000E942F0B882399F1CD82DE82EF82F88694
:101DA000C501B801AE014B5F5F4F0E94310C882323
:101DB00099F426C049825A826B827C82C501B8019F
:101DC000AE014F5F5F4F0E94310C0894C108D108EB
:101DD000C114D10449F413C095E0C92ED12C24E6D6
:101DE000422E512C612C712CF80180819181F401DB
:101DF0002081318182179307E9F681E001C080E0FC
:101E00002C960FB6F894DEBF0FBECDBFDF91CF91F9
:101E10001F910F91FF90EF90DF90CF90BF90AF9008
:101E20009F908F907F906F905F904F9008952F922A
:101E30003F924F925F926F927F928F929F92AF925A
:101E4000BF92DF92EF92FF920F931F93CF93DF9396
:101E5000CDB7DEB765970FB6F894DEBF0FBECDBF26
:101E60007C012B01088B198B2A8B3B8B4C8B5D8B58
:101E70006F3F710561F58DB79EB70A970FB6F8945D
:101E80009EBF0FBE8DBFADB7BEB71196FE01B9960E
:101E90008AE001900D928150E1F7C70160E070E0A7
:101EA000088919892A893B894C895D890E94170F05
:101EB000EDB7FEB73A960FB6F894FEBF0FBEEDBF72
:101EC000882309F401C181E0482E512C16C0611508
:101ED000710599F4888899888A899B899987888768
:101EE0008C899D899B878A8780E68F8302E0202EDC
:101EF000312CDD2400E210E01BC089A49AA48BA53C
:101F00009CA5998788878DA59EA59B878A878FA585
:101F100098A99D878C8789A99AA99F878E8780E732
:101F20008F83B4E02B2E312C18E0D12E04E210E088
:101F3000F701808160E00E941A2882E00E942E0A48
:101F4000802F0E942E0A5401A3E0B694A794AA956C
:101F5000E1F78A2D0E942E0A882D8295880F807EB7
:101F60000E942E0AF701808161E00E941A280E83E8
:101F7000C701BE016A5F7F4F0E94EF0A90E08A1599
:101F80009B0509F0A1C0F701808160E00E941A283A
:101F900082E00E942E0A8D2D0E942E0A78E0672E84
:101FA000712C6C0E7D1E530100E010E0F1E04F1625
:101FB000510499F40130110581F4F701808161E049
:101FC0000E941A28F701808160E00E941A2882E0AE
:101FD0000E942E0A80E10E942E0AF50181909190C4
:101FE0005F01C40163E0969587956A95E1F70E94C9
:101FF0002E0A882D8295880F807E0E942E0A80E00E
:102000000E942E0A80E00E942E0A0F5F1F4F0215C9
:10201000130560F2F701808161E00E941A2800E058
:1020200010E0AA24BB24F1E04F16510431F4013032
:10203000110519F454E0A52EB12C8D2D8A0D8D8338
:10204000C701BE016B5F7F4F0E94EF0AF301219130
:1020500031913F0190E043E0369527954A95E1F7AD
:102060008217930789F50F5F1F4FF4E0DF0E02150B
:102070001305C8F286E08C831B82C701BE01695F2D
:102080007F4FAE014C5F5F4F9E012D5F3F4F0E941F
:10209000B60A85E08A8381E08983C701BE01695F52
:1020A0007F4FAE014E5F5F4F9E012F5F3F4F0E94FB
:1020B000B60AC701BE01695F7F4F0E94EF0A982FE1
:1020C000907681E0903209F080E065960FB6F89442
:1020D000DEBF0FBECDBFDF91CF911F910F91FF905B
:1020E000EF90DF90BF90AF909F908F907F906F9018
:1020F0005F904F903F902F9008950F931F93CF9331
:10210000DF93CDB7DEB760970FB6F894DEBF0FBE92
:10211000CDBF9C0180E596E09A8389839C838B8365
:102120009E838D834FEF57E058874F8348EE57E0EB
:102130005A87498749E557E05C874B879E878D879B
:1021400080EB94E0988B8F878DB79EB70A970FB678
:10215000F8949EBF0FBE8DBFADB7BEB71196FE01FE
:1021600037968AE001900D928150E1F7C9016FEF37
:1021700070E009811A812B813C814D815E810E9432
:10218000170F2DB73EB7265F3F4F0FB6F8943EBFEF
:102190000FBE2DBF60960FB6F894DEBF0FBECDBF49
:1021A000DF91CF911F910F910895FC018081918162
:1021B00005978034910540F48B549B4FFC0180813E
:1021C000992787FD9095089580E090E00895CF923B
:1021D000DF92EF92FF920F931F93CF93DF93CDB7D0
:1021E000DEB76F970FB6F894DEBF0FBECDBF6C01A0
:1021F0008B017A01CE010F9669E274E00E94D3262A
:1022000000D000D0EDB7FEB731968AE294E0ADB7CA
:10221000BEB712969C938E931197D6018C918283B0
:1022200013820E947C1900D08DE494E0EDB7FEB7D4
:1022300092838183F80180819181A281B381EDB77E
:10224000FEB783839483A583B6830E947C198DB7E0
:102250009EB706960FB6F8949EBF0FBE8DBFD601EF
:102260008C91813109F40AC18231B8F48C30A1F12A
:102270008D3050F4853009F4CFC0853008F41CC18E
:10228000883008F019C1E2C08F3009F4C5C0803130
:10229000B8F58D3009F010C1ABC08C3309F476C0AD
:1022A0008D3350F48F3209F4E9C0843309F450C0FF
:1022B0008F3109F001C188C0833409F461C08434CE
:1022C00020F4823409F0F8C02FC0843409F440C0EF
:1022D000863409F0F1C0A0C0F8016081718182816B
:1022E000938120E030E040E85EE30E94262AD62E6B
:1022F000172FC82E092FCE010F9669E274E0D7C0C0
:10230000D8016D917D918D919C9120E030E048EC59
:1023100052E40E94D728D62E172FC82E092FCE019F
:102320000F966AE674E0C3C0F80160817181828112
:10233000938120E030E04AE754E40E94D728D62E6B
:10234000172FC82E092FCE010F966CE674E0AFC090
:10235000D8016D917D918D919C9120E030E040E01D
:1023600058E30E94262A23E333E34BE651E40E941C
:10237000262AD62E172FC82E092F21E030E0B1C013
:10238000F80160817181828193817DC0D8016D9156
:102390007D918D919C9120E030E040E251E40E94DB
:1023A000D72820E030E040E252E40E946E2826E682
:1023B00036E646EE5FE30E94262A462F572F682F07
:1023C000792FCB01BA0133C0F8016081718182811C
:1023D000938120E030E040E752E40E94D728D62ED7
:1023E000172FC82E092FCE010F9663E774E05FC048
:1023F000D8016D917D918D919C912CEF3EEF4DEC2C
:102400005FE30E94D728D62E172FC82E092FCE01A2
:102410000F9665E774E04BC0F8016081718182819D
:10242000938120E030E040E252E40E946E2820E0F8
:1024300030E040E052E40E946F28D62E172FC82EBD
:10244000092FCE010F9660E774E031C0F80160817A
:1024500071818281938120E030E040E053E40E946A
:102460006E2820E030E048EC52E40E94262A20E06A
:1024700030E040E05CE30E94262A11C0D8016D9153
:102480007D918D919C9120E030E048EC52E40E94D7
:10249000262A20E030E04FE753E40E94D728D62ECA
:1024A000172FC82E092FCE010F966EE674E00E94FA
:1024B000072720E030E015C010E0CE010F960E9403
:1024C000C527812F6F960FB6F894DEBF0FBECDBF24
:1024D000DF91CF911F910F91FF90EF90DF90CF9000
:1024E00008958D2D912FAC2DB02FBC01CD0145E06D
:1024F0008E010A5E1F4F0E94FB2ACE010896B8018A
:102500000E94D326CE010196BE01685F7F4F0E94D4
:10251000BA27CE010196BE01615F7F4F0E949C26C3
:10252000BC01C7010E949827CE0101960E94CB27CB
:10253000CE0108960E94C527C7010E94EF248AECAD
:1025400096E0B7010E94CA2411E0B7CF8F929F9204
:10255000AF92BF92CF92DF92EF92FF920F931F93B1
:10256000CF93DF93CDB7DEB767970FB6F894DEBF92
:102570000FBECDBF6B014A01DB012D913C9111973C
:10258000B4E0203B3B0709F07CC0FC0180819181D5
:10259000F4E0803B9F0709F074C098E0E92EF12C2D
:1025A000EC0EFD1E00E010E024E6A22EB12CF60198
:1025B000E00FF11F218530E00E5F1F4F922F88271B
:1025C000820F931F80519742B5010E94AC2A882741
:1025D00077FD8095982F0E9472292CEF3EEF4DECED
:1025E0005FE30E94D7280E943F29DC01CB01F7015D
:1025F000819391937F0108301105C9F68DB79EB77D
:102600000C970FB6F8949EBF0FBE8DBFEDB7FEB707
:1026100031968E01005F1F4FADB7BEB712961C9367
:102620000E93119789E794E0938382838885998537
:10263000958384838A859B85978386838C859D85F6
:10264000918780878E859F85938782870E94B62D8C
:10265000EDB7FEB73C960FB6F894FEBF0FBEEDBFC8
:10266000CE010196B8010E94D326C401BE016F5F5E
:102670007F4F0E949827CE0101960E94C52781E0D6
:1026800001C080E067960FB6F894DEBF0FBECDBFE5
:10269000DF91CF911F910F91FF90EF90DF90CF903E
:1026A000BF90AF909F908F900895CF92DF92EF925E
:1026B000FF920F931F93CF93DF938C01EB0100D018
:1026C00000D085E894E0EDB7FEB79283818381E086
:1026D00090E0948383830E947C19888199810F9074
:1026E0000F900F900F908130910541F4F8016485AF
:1026F00070E080E090E00E94702924C08230910553
:10270000E9F4F801648570E080E090E00E947029AF
:1027100020E030E040E853E40E94262A6B017C016F
:10272000F801658570E080E090E00E9470299B01CF
:10273000AC01C701B6010E946F2804C060E07CE3D1
:102740008CE196EC382F292F862F972FA32FB22FAD
:10275000BC01CD01DF91CF911F910F91FF90EF90C0
:10276000DF90CF900895FB012FED37E03183208378
:1027700012821382148215821682178228E0208723
:1027800022E0218721E02287DC018C918387148657
:10279000158616861786108A0895AF92BF92CF923B
:1027A000DF92EF92FF920F931F93CF93DF93CDB7FA
:1027B000DEB76F970FB6F894DEBF0FBECDBF7C01BA
:1027C0005B016A0189010E94941D1B821D821C828B
:1027D000F80180819181009719F4C7010E94D510FA
:1027E0009D838C83F70180819181F4E0803B9F077A
:1027F000B1F027E28F30920791F08A831982C601E7
:10280000BE016E5F7F4FAE01425F5F4F9E012D5F45
:102810003F4F8E010F5F1F4F0E94E60D1CC0C70186
:10282000BE01625F7F4F0E94B31389E190E0A0E098
:10283000B0E08A879B87AC87BD87C601BE01625F17
:102840007F4FAE01465F5F4F0E94310C91E08823BD
:1028500009F490E09B838B818823C1F1F70180818B
:102860009181F7E28F309F0759F124E0803B920776
:10287000F9F08E898130E1F0CE010E96BE016C5FD9
:102880007F4F0E9455136E837F838887998720E04E
:102890003CE34CE156EC0E94D3288823B9F0CE01EA
:1028A0004996BE016A5F7F4FA5010E94E7100FC0E5
:1028B000C701BE01625F7F4FA5010E94A61207C03B
:1028C000CE010E9665E974E00E94A41980E08F8F16
:1028D0000E94A61D8F8D6F960FB6F894DEBF0FBEB7
:1028E000CDBFDF91CF911F910F91FF90EF90DF90BF
:1028F000CF90BF90AF9008952F923F924F925F92EA
:102900006F927F928F929F92AF92BF92CF92DF92FF
:10291000EF92FF920F931F93CF93DF93CDB7DEB764
:10292000C155D0400FB6F894DEBF0FBECDBF3C01FD
:1029300028967FAF6EAF289769012DB73EB72C96CA
:102940003FAF2EAF2C97FA010190F081E02D2A962F
:10295000FFAFEEAF2A978DE090E098878F8381E0FC
:1029600090E09E838D83CE010796B301A6019E0160
:102970002B5F3F4F0E94CD13882309F4C1C1CE01C4
:10298000CF96B3010E94AF2762E370E080E090E051
:102990000E946F2025968EAD9FAD259784309105BE
:1029A00008F4AAC19C0123503040CE01C896BE0154
:1029B000615C7F4F40E050E00E945127CE01CF96EE
:1029C000BE01685C7F4F0E949827CE01C8960E9486
:1029D000C52780E190E09C838B8382E090E09A831E
:1029E0008983CE010396B301A6019E012F5F3F4F5D
:1029F0000E94CD13882309F47FC1CE01C196B30193
:102A00000E94AF2762E370E080E090E00E946F20B8
:102A10002DA93EA92230310508F46AC1FDB72D96D3
:102A2000FFAF2D978EB72E968FAF2E972150304047
:102A3000CE018A96BE016F5C7F4F40E050E00E945D
:102A40005127CE01C196BE01665D7F4F0E94982737
:102A5000CE018A960E94C52725964EAC5FAC25977D
:102A60000894411C511CEDB7FEB7E419F5090FB6E7
:102A7000F894FEBF0FBEEDBFCDB6DEB60894C11C04
:102A8000D11C2F96CFAE2F976096DFAE6097CE0108
:102A9000CF96B601A20120E030E00E946D25C6016C
:102AA0000E94172D4C012DA83EA80894211C311C12
:102AB0002DB73EB7221933090FB6F8943EBF0FBEAB
:102AC0002DBFCDB6DEB60894C11CD11C6196CFAE29
:102AD00061976296DFAE629725964EAD5FAD259702
:102AE0004F5F5F4FCE01C196B60120E030E00E94FB
:102AF0006D25C6010E94172D8C01B401882777FD32
:102B00008095982F0E9472296B017C01B80188275B
:102B100077FD8095982F0E94722920E030E048ECE4
:102B200052E40E94262A9B01AC01C701B6010E9413
:102B3000D7282CE032E047E351E40E94262A562FA2
:102B4000472F382F292F862E972EA82EB92E862F65
:102B5000942FA32FB22FBC01CD01C52ED42EE32E6E
:102B6000F22EA70196010E94892A882309F0ECC061
:102B700075016401E894F7F8C701B6012FEF3FEF44
:102B80004FE75FE70E94892A882359F4C701B601FD
:102B90002FEF3FEF4FE75FE70E94D32818160CF4A2
:102BA000D3C0C501B40120E030E0A9010E94222A6F
:102BB00018160CF083C0C501B40120E030E048E4F1
:102BC00052E40E94D32887FF79C02A968EAD9FAD2C
:102BD0002A978930910531F1C501B40145E021E022
:102BE0008E01075F1F4F0E94FB2ACE014C966BE9B6
:102BF00074E00E94ED26CE018396B8010E94D32690
:102C0000CE014C96BE016D5D7F4F0E949C26BC019B
:102C1000C3010E949827CE0183960E94C527CE014A
:102C20004C964AC0C501B4012896EEADFFAD289779
:102C300020813181428153810E946F2820E030E061
:102C400040E05FE30E94262A9B01462F532F682F06
:102C5000792F2896EEADFFAD28974083518362838C
:102C60007383582F492F822F932FA52FB42FBC0188
:102C7000CD0145E022E08E01075F1F4F0E94FB2A35
:102C8000CE010E9663EA74E00E94ED26CE014596D1
:102C9000B8010E94D326CE010E96BE016B5E7F4F17
:102CA0000E949C26BC01C3010E949827CE01459634
:102CB0000E94C527CE010E960E94CB272F968FAD7E
:102CC0002F9760969FAD609760E070E0A2010E9430
:102CD0004D2D61968FAD619762969FAD629760E0D2
:102CE00070E0A1010E944D2D2D96FFAD2D97FDBFE7
:102CF000CE01C1960E94C527CE01CF960E94C5275E
:102D000081E02C96EEADFFAD2C970FB6F894FEBF88
:102D10000FBEEDBFCF5ADF4F0FB6F894DEBF0FBE28
:102D2000CDBFDF91CF911F910F91FF90EF90DF907A
:102D3000CF90BF90AF909F908F907F906F905F905B
:102D40004F903F902F900895C3016BEA74E00E946A
:102D50000727B4CF8130910569F482E396E065EFEF
:102D600074E00E94D3268BE296E068EF74E00E9444
:102D7000D3260895009741F48BE296E00E94C52780
:102D800082E396E00E94C527089582E396E065EF0E
:102D900074E00E9407278BE296E068EF74E00E94DF
:102DA000072708950F931F93CF93DF93CDB7DEB717
:102DB00060970FB6F894DEBF0FBECDBF8C01CE0179
:102DC00003966BEF74E00E94ED26CE01039662E35A
:102DD00076E00E949C2660E075E00E9480266BE20F
:102DE00076E00E949C26BC01CE010A960E94AF2785
:102DF000CE0103960E94CB2785E090E09A838983D9
:102E0000CE010A96B801AE014F5F5F4F0E946C1B66
:102E1000CE010A960E94C52760960FB6F894DEBFD1
:102E20000FBECDBFDF91CF911F910F9108950F93EA
:102E30001F93CF93DF93CDB7DEB768970FB6F894A3
:102E4000DEBF0FBECDBF82E396E0BE016F5F7F4F56
:102E500043E050E020E030E00E946D25CE01019675
:102E60000E94172D8C30910574F48C010F5F1F4F59
:102E70000A30110554F0CE010496B8014AE00E94D0
:102E8000202700E01BC001E010E0CE010B9662E0BD
:102E900075E00E94ED26CE014296B8014AE00E94FC
:102EA0002027CE010B96BE016E5E7F4F0E949C26AE
:102EB000BC01CE0104960E94AF2701E082E396E0B8
:102EC000BE016C5F7F4F0E949827CE0104960E943E
:102ED000C527002341F0CE0142960E94C527CE01AE
:102EE0000B960E94CB2768960FB6F894DEBF0FBEF4
:102EF000CDBFDF91CF911F910F9108950F931F9335
:102F0000CF93DF93CDB7DEB768970FB6F894DEBFE7
:102F10000FBECDBF8BE296E0BE016F5F7F4F43E0F7
:102F200050E020E030E00E946D25CE0101960E9425
:102F3000172D8B33910574F48C010F5F1F4F0A30EE
:102F4000110554F0CE010496B8014AE00E942027F2
:102F500000E01BC000E010E0CE010B9662E075E0DF
:102F60000E94ED26CE014296B8014AE00E94202739
:102F7000CE010B96BE016E5E7F4F0E949C26BC0167
:102F8000CE0104960E94AF2701E08BE296E0BE01DD
:102F90006C5F7F4F0E949827CE0104960E94C52740
:102FA000002341F0CE0142960E94C527CE010B9628
:102FB0000E94CB2768960FB6F894DEBF0FBECDBF38
:102FC000DF91CF911F910F9108952F923F924F92D1
:102FD0005F926F927F928F929F92AF92BF92CF92A9
:102FE000DF92EF92FF920F931F93CF93DF93CDB7B2
:102FF000DEB767970FB6F894DEBF0FBECDBF1C01DA
:103000008DB79EB79F8B8E8B4091360650913706B9
:103010004F5F5F4FEDB7FEB7E41BF50B0FB6F894AB
:10302000FEBF0FBEEDBF0DB71EB70F5F1F4F82E390
:1030300096E0B80120E030E00E946D25C8010E94B2
:10304000172D382F330F330F330F20E0290166245B
:1030500057FC6094762C40912F06509130064F5FBC
:103060005F4F8DB79EB7841B950B0FB6F8949EBF2C
:103070000FBE8DBF0DB71EB70F5F1F4F8BE296E0DF
:10308000B80120E030E00E946D25C8010E94172D94
:103090006C01A5E0CC0CDD1CAA95E1F7EE24D7FC71
:1030A000E094FE2C46015701840C951CA61CB71C0D
:1030B00000D000D000D084E095E0EDB7FEB7928359
:1030C000818343825482658276820E947C198EE0DD
:1030D00095E0EDB7FEB792838183C382D482E58207
:1030E000F6820E947C198AE195E0EDB7FEB79283E3
:1030F000818383829482A582B6820E947C1982E9B0
:1031000092E09E838D831F821C8688E08D8788E1F4
:103110008E878EEF8F87988A898A80E48A8B1B8AB4
:103120001C8A1D8A8DB79EB706960FB6F8949EBF6F
:103130000FBE8DBFCE01059665E275E00E94A41911
:1031400084E690E0A0E0B0E089839A83AB83BC83FF
:10315000C101BE016B5F7F4FAE014F5F5F4F0E94A9
:103160002F0BEE89FF890FB6F894FEBF0FBEEDBF9F
:1031700067960FB6F894DEBF0FBECDBFDF91CF913B
:103180001F910F91FF90EF90DF90CF90BF90AF9085
:103190009F908F907F906F905F904F903F902F9077
:1031A0000895EF92FF920F931F93CF93DF9300D078
:1031B000CDB7DEB78C017B0180EE97E0F8019183FB
:1031C00080831282178288E0808783E0818782E291
:1031D000828782EA838786E184871586168617862A
:1031E000108A0E94941D88EE97E09A838983C70114
:1031F000BE016F5F7F4FA8010E94A00E082F0E94A2
:10320000A61D81E0002309F480E00F900F90DF916C
:10321000CF911F910F91FF90EF9008958F929F9201
:10322000AF92BF92CF92DF92EF92FF920F931F93D4
:10323000CF93DF93CDB7DEB766970FB6F894DEBFB6
:103240000FBECDBF4C015B0188E496E09E838D8369
:103250001F821C8688E08D8783E08E8782E28F87BD
:10326000188A198A1A8A1B8A1C8A1D8A0E94941D30
:1032700004E610E084E6C82ED12CE12CF12CC982A2
:10328000DA82EB82FC82C401BE016B5F7F4FAE012C
:103290004F5F5F4F0E94310C882379F08D819E81B2
:1032A00026E08035920769F48E85803811F08F3FD3
:1032B00041F4F501108281E008C081E0F5018083CE
:1032C00003C001501040D9F680E08E8B0E94A61DED
:1032D0008E8966960FB6F894DEBF0FBECDBFDF9124
:1032E000CF911F910F91FF90EF90DF90CF90BF9003
:1032F000AF909F908F900895CF93DF93CDB7DEB7B7
:10330000C058D0400FB6F894DEBF0FBECDBFFE014F
:10331000EB57FF4F41915191CE01019660E870E06B
:103320009F010E94D82D8AEC96E0BE016F5F7F4F0F
:103330000E948124C058DF4F0FB6F894DEBF0FBE45
:10334000CDBFDF91CF9108950F931F93CF93DF935C
:103350008C018AEC96E00E9481248AEC96E06CE273
:1033600075E00E948124F801608171818AEC96E009
:1033700040E150E00E94E1238AEC96E06FE275E0C4
:103380000E948124C0E0D0E011C0F801EC0FFD1FC5
:103390008AEC96E0618540E150E00E94F2238AECDD
:1033A00096E06FE275E00E9481242196F801808505
:1033B00090E0C817D9074CF38AEC96E061E375E01A
:1033C0000E948124F8018281882329F08AEC96E00A
:1033D00068E375E004C08AEC96E06DE375E00E9456
:1033E00081248AEC96E061E475E00E9481248AECF5
:1033F00096E0F80160854AE050E00E940424DF91E5
:10340000CF911F910F9108958F929F92AF92BF928B
:10341000CF92DF92EF92FF920F931F93CF93DF93A0
:10342000CDB7DEB7A1970FB6F894DEBF0FBECDBF04
:103430005C014B018A010E949D1D00D000D000D08C
:10344000EDB7FEB7319688E495E0ADB7BEB71296FA
:103450009C938E931197B382A282958284820E945C
:103460007C198DB79EB706960FB6F8949EBF0FBE17
:103470008DBFCE0141960E949F1F2AE0C22ED12C03
:10348000E12CF12CCD86DE86EF86F88AC801BE01DC
:103490006F5E7F4FAE01435F5F4F0E942F0B1C8218
:1034A0001B82CE014196BE016D5F7F4FA5010E9438
:1034B000B11FC986DA86EB86FC86C801BE016F5E45
:1034C0007F4FAE01475F5F4F0E942F0B81E090E07E
:1034D0009A838983CE014196BE016F5F7F4FA4011D
:1034E0000E94B11FCD82DE82EF82F886C801BE0144
:1034F0006F5E7F4FAE014B5F5F4F0E942F0B0E94AC
:10350000A61DA1960FB6F894DEBF0FBECDBFDF910A
:10351000CF911F910F91FF90EF90DF90CF90BF90D0
:10352000AF909F908F9008958F929F92AF92BF928D
:10353000CF92DF92EF92FF920F931F93CF93DF937F
:10354000CDB7DEB76C01CB015A014901EDB6FEB62D
:10355000FB01448155814F5F5F4F2DB73EB7241B60
:10356000350B0FB6F8943EBF0FBE2DBF0DB71EB77B
:103570000F5F1F4FB80120E030E00E946D25C601AB
:10358000B801A50194010E94041A0FB6F894FEBE7A
:103590000FBEEDBEDF91CF911F910F91FF90EF9085
:1035A000DF90CF90BF90AF909F908F900895AF9293
:1035B000BF92CF92DF92EF92FF920F931F93CF9320
:1035C000DF93CDB7DEB72E970FB6F894DEBF0FBEF0
:1035D000CDBF7C016B015A01FC0101900020E9F78D
:1035E0003197E81BF90BE730F10510F48F0102C0A9
:1035F00007E010E0CE010796B701A8010E94642DF4
:10360000E7E0F0E0EC0FFD1FE00FF11F1082F70183
:1036100001900020E9F73197EE19FF09E830F10534
:10362000C0F03797E530F10510F48F0102C005E0D6
:1036300010E0B701695F7F4FCE010196A8010E949B
:10364000642DE1E0F0E0EC0FFD1FE00FF11F1082B0
:1036500001C01982CE010796BE016F5F7F4FA601A0
:1036600095010E94041A2E960FB6F894DEBF0FBE85
:10367000CDBFDF91CF911F910F91FF90EF90DF9021
:10368000CF90BF90AF900895AF92BF92CF92DF924C
:10369000EF92FF920F931F93CF93DF937C016B0107
:1036A0005A018901C0E0D0E006C0C701B601A501FA
:1036B0000E94D71A2196F80180819181C817D907F5
:1036C000A4F3DF91CF911F910F91FF90EF90DF90C6
:1036D000CF90BF90AF900895AF92BF92CF92DF92FC
:1036E000EF92FF920F931F93CF93DF93CDB7DEB787
:1036F0006B015A01EDB6FEB6FC01448155814F5F66
:103700005F4F2DB73EB7241B350B0FB6F8943EBF65
:103710000FBE2DBF0DB71EB70F5F1F4FB80120E0C2
:1037200030E00E946D25C801B601A5010E94D71A9C
:103730000FB6F894FEBE0FBEEDBEDF91CF911F9184
:103740000F91FF90EF90DF90CF90BF90AF900895D2
:10375000EF92FF920F931F93CF93DF93CDB7DEB716
:1037600067970FB6F894DEBF0FBECDBF8C017B010B
:103770008FED97E098878F8319861E8688E08F8764
:1037800082E0888B84E0898B1A8A1B8A1C8A1D8AB6
:103790001E8A1F8A0E94941D84E690E0A0E0B0E09B
:1037A0008B839C83AD83BE83C801BE01695F7F4F5D
:1037B000AE014D5F5F4F0E942F0B0E94A61D86E059
:1037C00090E09A83898382E595E06AE575E0A70138
:1037D0009E012F5F3F4F0E94041A67960FB6F89420
:1037E000DEBF0FBECDBFDF91CF911F910F91FF9034
:1037F000EF9008950F931F93CF93DF93CDB7DEB76C
:1038000065970FB6F894DEBF0FBECDBF8C018FED6C
:1038100097E09E838D831F821C8688E08D8781E0E0
:103820008E878F87188A198A1A8A1B8A1C8A1D8A92
:103830000E94941D84E690E0A0E0B0E089839A8322
:10384000AB83BC83C801BE016B5F7F4FAE014F5F8E
:103850005F4F0E942F0B0E94A61D888990E08F77F2
:10386000907065960FB6F894DEBF0FBECDBFDF91A6
:10387000CF911F910F9108956F927F928F929F9297
:10388000AF92BF92CF92DF92EF92FF920F931F936E
:10389000CF93DF93CDB7DEB7C054D0400FB6F894C6
:1038A000DEBF0FBECDBF4C013B018A018FED97E01B
:1038B00099AB88AB1AAA1FAA88E088AF83E089AFCA
:1038C0001AAE1BAE1CAE1DAE1EAE1FAE21961FAEB5
:1038D000219700D000D08FE595E0EDB7FEB7928339
:1038E000818331E0A32EB12CB482A3820E947C1983
:1038F0000F900F900F900F900E94941DA4E6CA2E77
:10390000D12CE12CF12CC986DA86EB86FC86C40129
:10391000BE01605D7F4FAE01475F5F4F0E942F0B7E
:10392000882309F4DBC0CD82DE82EF82F886C401F1
:10393000BE01605D7F4FAE014B5F5F4F0E94310C57
:10394000882309F4CBC0F8018081918182309105F0
:1039500014F0B182A082CE01C0966EE675E00E949E
:10396000A4198AAD833409F0ABC0F801808191813C
:10397000FE01E80FF91FC2ACDD2403AD10E0CE015B
:10398000899663E775E00E94D326C601807C90701B
:103990008034910589F0813491051CF4009741F041
:1039A00018C08038910561F0803C910591F40CC0FD
:1039B000CE01899660E50BC0CE01899663E407C00D
:1039C000CE01899662E403C0CE01899665E50E9426
:1039D0005326B6016073707084E0759567958A957B
:1039E000E1F7CE0182964AE00E942027CE01899617
:1039F000BE016E5D7F4F0E946626CE0182960E94B8
:103A0000C527B6016F707070CE014B964AE00E94D8
:103A10002027CE018996BE01655E7F4F0E946626F3
:103A2000CE014B960E94C527B80124E07695679594
:103A30002A95E1F7CE0144964AE00E942027CE0164
:103A40008996BE016C5E7F4F0E946626CE01449629
:103A50000E94C527B8016F707070CE010D964AE0C4
:103A60000E942027CE018996BE01635F7F4F0E948E
:103A70006626CE010D960E94C527CE0189960E942A
:103A8000EF24CE01899664E775E00E949A25882389
:103A900079F486E090E09C838B838EE695E0BE010E
:103AA000675D7F4FA3019E012D5F3F4F0E94941AD7
:103AB0000E94A61DCE0189960E94C52781E011C0F3
:103AC00086E090E09A8389838EE695E06AE775E068
:103AD000A3019E012F5F3F4F0E94041A0E94A61D62
:103AE00080E0C05CDF4F0FB6F894DEBF0FBECDBFE5
:103AF000DF91CF911F910F91FF90EF90DF90CF90CA
:103B0000BF90AF909F908F907F906F90089588E0C6
:103B100061E00E94DB2787E061E00E94DB2788E00C
:103B200061E00E941A28089589E061E00E941A2845
:103B30008AE060E00E941A2808958AE061E00E940D
:103B40001A2889E060E00E941A2808958AE061E05E
:103B50000E941A2889E061E00E941A28089584E0F2
:103B60000E946C1F80E00E94671F81E00E945E1F20
:103B70000E94431F8AE061E00E94DB278AE061E047
:103B80000E941A2889E061E00E94DB2789E061E059
:103B90000E941A280E94A61D08950E94AF1D0E942F
:103BA000871DEAE7F0E080818F7780830895EF92A8
:103BB000FF920F931F93CF93DF9300D0CDB7DEB763
:103BC000790181E597E0F901918380831282178260
:103BD00088E0808783E0818782E28287FB018081A1
:103BE000F9018387FA018081F90184871586168699
:103BF0001786108A0E94941D89E597E09A8389832D
:103C0000C801BE016F5F7F4FA7010E94A00E91E027
:103C1000882309F490E0892F0F900F90DF91CF91C6
:103C20001F910F91FF90EF9008958F929F92AF9206
:103C3000BF92CF92DF92EF92FF920F931F93CF9399
:103C4000DF93CDB7DEB7A3970FB6F894DEBF0FBEF4
:103C5000CDBF7C014B015A01890189EC90E09C8326
:103C60008B8382E090E09A838983C701BE016D5FF8
:103C70007F4FAE014F5F5F4F9E012D5E3F4F0E9411
:103C8000D71D882309F447C0D7018D919C91FE016F
:103C9000E80FF91FE78CFF24EEEEFFEFEE0EFF1E9C
:103CA00000D000D000D0EDB7FEB731962BE0C22E89
:103CB000D12CCC0EDD1EADB7BEB71296DC92CE92E3
:103CC00011972FE735E033832283958384830E9405
:103CD000B62DEDB7FEB731968E010B5F1F4FADB716
:103CE000BEB712961C930E93119787E895E09383C5
:103CF0008283F582E4820E94B62DEDB7FEB7369638
:103D00000FB6F894FEBF0FBEEDBFC601B801A50106
:103D100094010E94041AA3960FB6F894DEBF0FBE5A
:103D2000CDBFDF91CF911F910F91FF90EF90DF906A
:103D3000CF90BF90AF909F908F9008956F927F9299
:103D40008F929F92AF92BF92CF92DF92EF92FF92AB
:103D50000F931F93CF93DF93CDB7DEB7A3970FB623
:103D6000F894DEBF0FBECDBF7C013B016A01890123
:103D700089EC90E09C838B8381E090E09A83898337
:103D8000C701BE016D5F7F4FAE014F5F5F4F9E0168
:103D90002D5E3F4F0E94D71D882309F45FC0D701D5
:103DA0000D911C91FE01E00FF11F678D70E080E026
:103DB00090E00E94722920E030EA4BEA54E40E942D
:103DC000262A20E030E04AE754E40E94D72826EC77
:103DD00034E844E15EE30E94262A0E943F294B0119
:103DE0005C0100D000D000D0EDB7FEB731960F2EA9
:103DF000FBE0EF2EFF24F02DEC0EFD1EADB7BEB79D
:103E00001296FC92EE9211978FE795E0938382834E
:103E1000158304830E94B62DEDB7FEB731968E014F
:103E20000B5F1F4FADB7BEB712961C930E93119741
:103E30008CE895E093838283958284820E94B62DDC
:103E4000EDB7FEB736960FB6F894FEBF0FBEEDBFC6
:103E5000C701B801A60193010E94041AA3960FB6E8
:103E6000F894DEBF0FBECDBFDF91CF911F910F91B0
:103E7000FF90EF90DF90CF90BF90AF909F908F908A
:103E80007F906F9008958AE061E00E941A288AE08E
:103E900061E00E94DB278CB580618CBD8CB58064AD
:103EA0008CBD8DE061E00E94DB278BE061E00E9429
:103EB000DB2708958CB58F7B8CBD0895882319F47A
:103EC0008CB5806202C08CB58F7D8CBD08959CB589
:103ED000937F982B9CBD08952CB5982F93702C7FC1
:103EE000922B9CBD2DB590E09595879595958795DE
:103EF00081702E7F822B8DBD0895FB01DC018D9199
:103F00009C91119791838083178288E08087128229
:103F10000895FB012FED37E031832083178228E0DD
:103F20002087128222E0218721E02287DC018C9108
:103F300083871486158616861786108A0895FC01D5
:103F40008FE892E091838083178288E080871282D5
:103F50001186128613861486158616861786108A91
:103F600008951F93CF93DF93DC01EB01BA018881A1
:103F700099818130910519F026E030E002C025E0FA
:103F800030E080E090E04FED50E2FB01E80FF91FD8
:103F90001081112371F0FD01E80FF91F1A3211F49D
:103FA00042870AC0128708C00196FD01E80FF91F79
:103FB000518728173907C4F70196281739072CF7B6
:103FC00088819981009789F480E992E011969C9309
:103FD0008E9317961C92179788E018968C931897D3
:103FE00012961C92129780EC13C08130910599F4BF
:103FF00081E992E011969C938E9317961C921797E5
:1040000088E018968C93189712961C92129787E85E
:1040100019968C931997DF91CF911F91089581E0A4
:1040200090E00E94B401089580E090E00E94B40105
:1040300008951F920F920FB60F9211242F933F9362
:104040008F939F93AF93BF9380913D0690913E06CF
:10405000A0913F06B0914006309141060196A11D06
:10406000B11D232F2D5F2D3720F02D570196A11D57
:10407000B11D2093410680933D0690933E06A09388
:104080003F06B09340068091390690913A06A09180
:104090003B06B0913C060196A11DB11D80933906E7
:1040A00090933A06A0933B06B0933C06BF91AF9124
:1040B0009F918F913F912F910F900FBE0F901F9066
:1040C00018958FB7F89420913D0630913E064091A7
:1040D0003F06509140068FBFB901CA0108959B0168
:1040E000AC017FB7F8948091390690913A06A0917F
:1040F0003B06B0913C0666B5A89B05C06F3F19F022
:104100000196A11DB11D7FBFBA2FA92F982F882717
:10411000860F911DA11DB11D62E0880F991FAA1F76
:10412000BB1F6A95D1F7BC012DC0FFB7F8948091F1
:10413000390690913A06A0913B06B0913C06E6B54F
:10414000A89B05C0EF3F19F00196A11DB11DFFBF4F
:10415000BA2FA92F982F88278E0F911DA11DB11D51
:10416000E2E0880F991FAA1FBB1FEA95D1F7861BB3
:10417000970B885E9340C8F2215030404040504039
:1041800068517C4F211531054105510571F608959F
:10419000789484B5826084BD84B5816084BD85B522
:1041A000826085BD85B5816085BDEEE6F0E08081E9
:1041B00081608083E1E8F0E010828081826080830A
:1041C000808181608083E0E8F0E08081816080838D
:1041D000E1EBF0E0808184608083E0EBF0E08081BF
:1041E00081608083EAE7F0E0808184608083808161
:1041F0008260808380818160808380818068808309
:104200001092C100089508951F920F920FB60F9259
:1042100011242F933F934F938F939F93EF93FF938B
:104220004091C60020918206309183062F5F3F4F58
:104230002F73307080918406909185062817390776
:1042400059F0E0918206F0918306EE5BF94F4083CE
:104250003093830620938206FF91EF919F918F9177
:104260004F913F912F910F900FBE0F901F90189577
:10427000E091D606F091D706E05CFF4F81919191D5
:1042800020813181821B930B8F739070892B11F0E9
:104290000E94032108951F920F920FB60F921124CE
:1042A0002F933F938F939F93EF93FF932091C60695
:1042B0003091C7068091C8069091C9062817390722
:1042C00031F48091C1008F7D8093C10014C0E091D2
:1042D000C806F091C906EA57F94F20818091C806B7
:1042E0009091C90601968F7390709093C906809340
:1042F000C8062093C600FF91EF919F918F913F9147
:104300002F910F900FBE0F901F901895AF92BF92F4
:10431000DF92EF92FF920F931F93CF93DF93EC0105
:104320007A018B01DD24403081EE580780E0680778
:1043300080E0780711F0DD24D39491E0A92EB12C10
:10434000EC89FD89DD2069F0C5010E8C02C0880F63
:10435000991F0A94E2F7808360E079E08DE390E0B2
:1043600005C0108260E874E88EE190E0A801970132
:104370000E94BF2A215030404040504056954795FA
:104380003795279580E12030380720F0DD2011F0A7
:10439000DD24D6CFE889F9893083EA89FB89208337
:1043A000EE89FF89408121E030E0C9010A8C02C01A
:1043B000880F991F0A94E2F7482B4083EE89FF8902
:1043C0004081C9010B8C02C0880F991F0A94E2F743
:1043D000482B4083EE89FF894081C9010C8C02C0C3
:1043E000880F991F0A94E2F7482B4083EE89FF89D2
:1043F00080810D8C02C0220F331F0A94E2F72095B2
:1044000028232083DF91CF911F910F91FF90EF9090
:10441000DF90BF90AF900895DC011C96ED91FC9168
:104420001D97E05CFF4F2191319180819181281B84
:10443000390B2F733070C9010895DC011C96ED9182
:10444000FC911D97E05CFF4F20813181E054F040EA
:10445000DF01AE5BBF4F8D919C91119728173907F3
:1044600019F42FEF3FEF07C08D919C91E80FF91FD2
:104470008081282F30E0C9010895DC011C96ED9160
:10448000FC911D97E05CFF4F20813181E054F040AA
:10449000DF01AE5BBF4F8D919C91119728173907B3
:1044A00019F42FEF3FEF10C08D919C911197E80FF9
:1044B000F91F20818D919C91119701968F739070B7
:1044C00011969C938E9330E0C9010895FC01868576
:1044D0009785DC01A05CBF4FFC01EE5BFF4F2D9187
:1044E0003C9111978081918128173907C1F7089570
:1044F000CF93DF93EC01EE85FF85E05CFF4F2081D9
:104500003181E054F0402F5F3F4F2F733070DF0157
:10451000AE5BBF4F8D919C91119728173907D1F34E
:10452000E05CFF4F80819181E054F040E80FF91F7B
:104530006083EE85FF85E05CFF4F31832083EE8949
:10454000FF89208181E090E00D8C02C0880F991FC7
:104550000A94E2F7282B208381E090E0DF91CF914D
:1045600008951092CD061092CC0688EE93E0A0E05C
:10457000B0E08093CE069093CF06A093D006B09380
:10458000D10689E995E09093CB068093CA0682E430
:1045900096E09093D7068093D60686E896E09093AF
:1045A000D9068093D80685EC90E09093DB06809343
:1045B000DA0684EC90E09093DD068093DC0680ECD4
:1045C00090E09093DF068093DE0681EC90E090937C
:1045D000E1068093E00686EC90E09093E3068093FA
:1045E000E20684E08093E40683E08093E50687E0BA
:1045F0008093E60685E08093E70681E08093E806F5
:104600000895CF93DF930E94C8200E945803C8E307
:10461000D1E20E94DE082097E1F30E943821F9CF11
:10462000CF92DF92EF92FF920F931F93CF93DF937E
:104630007C016B018A01C0E0D0E00FC0D6016D9112
:104640006D01D701ED91FC910190F081E02DC70142
:104650000995C80FD91F015010400115110571F7B8
:10466000CE01DF91CF911F910F91FF90EF90DF90DE
:10467000CF900895EF92FF920F931F938C01DC016E
:10468000ED91FC910190F081E02D6DE009957C01A8
:10469000D801ED91FC910190F081E02DC8016AE014
:1046A00009959C012E0D3F1DC9011F910F91FF908F
:1046B000EF900895CF93DF93DB010D900020E9F791
:1046C0001197A61BB70BEC01E881F9810280F381F9
:1046D000E02DAD010995DF91CF9108954F925F9242
:1046E0007F928F929F92AF92BF92CF92DF92EF9282
:1046F000FF920F931F93DF93CF93CDB7DEB7A197B0
:104700000FB6F894DEBF0FBECDBF2C01742ECB01C7
:10471000223008F42AE019A231E2C32ED12CCC0EAB
:10472000DD1E822E9924AA24BB24672D752FA50196
:1047300094010E94BF2A79018A01C801B701A5012D
:1047400094010E948D2A472D461B0894C108D10868
:104750004A3014F4405D01C0495CF6014083E11425
:10476000F1040105110521F07E2C5F2DC801DDCF7C
:10477000C201B6010E945A23A1960FB6F894DEBF7B
:104780000FBECDBFCF91DF911F910F91FF90EF90A2
:10479000DF90CF90BF90AF909F908F907F905F9071
:1047A0004F900895DC012115310541F4ED91FC9104
:1047B0000190F081E02D642F099508950E946E23E9
:1047C0000895EF92FF920F931F939A017B0100E0EF
:1047D00010E0B801A7010E94D2231F910F91FF9012
:1047E000EF900895EF92FF920F931F939A01E62E98
:1047F000FF2400E010E0B801A7010E94D2231F911E
:104800000F91FF90EF900895CF92DF92EF92FF9279
:104810000F931F936C01E62E9A01FF2400E010E035
:10482000B801A7010E94D2238C01C6010E943A233D
:10483000080F191FC8011F910F91FF90EF90DF9093
:10484000CF900895CF92DF92EF92FF920F931F9334
:10485000CF93DF93EC016A017B012115310541F40F
:10486000E881F9810190F081E02D642F09951FC046
:104870002A303105D1F477FF17C0E881F981019022
:10488000F081E02D6DE209958C0144275527BA018E
:104890004C195D096E097F09CE012AE00E946E2342
:1048A0009801280F391F04C02AE00E946E239C0142
:1048B000C901DF91CF911F910F91FF90EF90DF9091
:1048C000CF900895CF92DF92EF92FF920F931F93B4
:1048D0006C017B019A010027F7FC0095102FB801AD
:1048E000A7010E9422248C01C6010E943A23080FCE
:1048F000191FC8011F910F91FF90EF90DF90CF908B
:1049000008950E945A230895EF92FF920F931F93E8
:104910007C010E945A238C01C7010E943A23080F90
:10492000191FC8011F910F91FF90EF900895AF924A
:10493000BF92CF92DF92EF92FF920F931F93CF938C
:10494000DF935C016B01EE24FF24C0E0D0E010C0D7
:10495000D501ED91FC9100811181C601BE010E943B
:10496000DE24682FC501F8010995E80EF91E21968D
:10497000F60184819581C817D90750F3C701DF91EB
:10498000CF911F910F91FF90EF90DF90CF90BF904C
:10499000AF900895EF92FF920F931F937C010E94B6
:1049A00097248C01C7010E943A239C01200F311FDC
:1049B000C9011F910F91FF90EF900895FC01848130
:1049C00095816817790748F40190F081E02D3097C0
:1049D00021F0E60FF71F8081089580E00895CF92BF
:1049E000DF92EF92FF920F931F93CF93DF936C01AF
:1049F000DC01ED90FC901197E114F10409F441C041
:104A00001496CD91DC9115972097D9F1870102C0BA
:104A10000F5F1F4FF8018081992787FD90950E94B5
:104A2000352D892BA9F72197CE0DDF1D01C02197C8
:104A30008881992787FD90950E94352D892B19F043
:104A4000C017D107A0F7FE013196E01BF10BD6018C
:104A50001596FC93EE9314972D913C9120173107F6
:104A600028F4C901B801AF010E94442DD601ED918F
:104A7000FC91119714968D919C911597E80FF91F51
:104A80001082DF91CF911F910F91FF90EF90DF90F7
:104A9000CF900895CF93DF93FC01DB018481958152
:104AA0004817590760F4C081D1816D917C91CE0186
:104AB000840F951F0E94732D9C01009719F42FEF0E
:104AC0003FEF02C02C1B3D0BC901DF91CF91089530
:104AD00040E050E00E944A2508950F931F93CF9322
:104AE000DF93FC018B0141155105F9F0611571054A
:104AF000E1F0848195812817390718F0FB011082B5
:104B000014C041505040EC01C21BD30B4C175D0741
:104B100008F4EA0160817181620F731FC801AE0160
:104B20000E94642DC00FD11F1882DF91CF911F9179
:104B30000F910895DC01FB0114968D919C911597BE
:104B4000892B31F461157105A9F090E0808108C0CE
:104B50000D90BC91A02D6115710529F490E08C9108
:104B6000882349F407C0CD010E94542D9C0190E098
:104B7000232B09F491E0892F0895CF93DF939C01B3
:104B8000FB01EC01A881B981109729F06081718146
:104B900061157105D1F4C081D181209759F08481CC
:104BA0009581892B39F0888190E022273327281BB3
:104BB000390B12C0109771F0F90184819581892B0E
:104BC00049F08C91282F30E007C0CD010E94542D70
:104BD0009C0102C020E030E0C901DF91CF9108952F
:104BE0000F931F93CF93DF93EC018B016F5F7F4F88
:104BF000888199810E944C2C009711F480E005C0B7
:104C0000998388831B830A8381E0DF91CF911F9171
:104C10000F910895CF93DF93EC0188819981892BBF
:104C200029F08A819B818617970760F4CE010E9444
:104C3000F025882341F08C819D81892B19F4E8812E
:104C4000F981108281E0DF91CF910895EF92FF9278
:104C50000F931F93CF93DF93EC017B016C817D81D8
:104C6000E114F104C1F04115510599F08A01060FD4
:104C7000171FB8010E940A26882369F0888199814C
:104C80002C813D81820F931FB7010E945D2D1D83F2
:104C90000C8381E001C080E0DF91CF911F910F91E3
:104CA000FF90EF900895DF93CF9300D0CDB7DEB79C
:104CB00069831A82BE016F5F7F4F41E050E00E941E
:104CC00026260F900F90CF91DF910895FB01608110
:104CD0007181448155810E9426260895CF93DF93E8
:104CE000EC0188819981009711F00E94B32B198201
:104CF00018821D821C821B821A82DF91CF91089537
:104D00000F931F93182F092F6115710561F0DB01B7
:104D10000D900020E9F71197A61BB70BAD010E947B
:104D20002626882321F4812F902F0E946E26812F22
:104D3000902F1F910F9108950F931F93182F092FF4
:104D4000FB0160817181448155810E942626882360
:104D500021F4812F902F0E946E26812F902F1F917A
:104D60000F910895EF92FF920F931F93CF93DF93CC
:104D7000EC017B018A01BA010E940A26882321F4F2
:104D8000CE010E946E2607C01D830C838881998105
:104D9000B7010E945D2DCE01DF91CF911F910F9140
:104DA000FF90EF900895CF93DF93EC011982188262
:104DB0001B821A821D821C821E826115710551F0B0
:104DC000DB010D900020E9F71197A61BB70BAD0191
:104DD0000E94B226DF91CF910895CF93DF93EC012B
:104DE000198218821B821A821D821C821E82611502
:104DF000710551F0DB010D900020E9F71197A61B1A
:104E0000B70BAD010E94B226DF91CF9108950F93A9
:104E10001F93182F092F6115710559F0DB010D90B3
:104E20000020E9F71197A61BB70BAD010E94B2262F
:104E300002C00E946E26812F902F1F910F9108951E
:104E4000EF92FF920F931F93DF93CF93CDB7DEB70F
:104E500062970FB6F894DEBF0FBECDBF8C01CB01B9
:104E6000F801118210821382128215821482168236
:104E70007E010894E11CF11CB70150E00E948D2DC9
:104E8000C801B7010E94072762960FB6F894DEBFEB
:104E90000FBECDBFCF91DF911F910F91FF90EF908B
:104EA0000895BF92CF92DF92EF92FF920F931F93DC
:104EB000CF93DF93082FB92E6B017A01E9012417F4
:104EC000350710F4EA017901802F9B2D61EC73E026
:104ED0000E94D326D60114968D919C9115978E151C
:104EE0009F05D0F08C179D0708F4EC01D601ED91D9
:104EF000FC911197EC0FFD1F108110826D917C9138
:104F00006E0D7F1D802F9B2D0E940727D601ED91EE
:104F1000FC91EC0FFD1F1083802F9B2DDF91CF9113
:104F20001F910F91FF90EF90DF90CF90BF90089569
:104F3000CF93DF93EC01FB018617970761F0608147
:104F400071816115710529F0448155810E94B22655
:104F500002C00E946E26CE01DF91CF910895FC0120
:104F600011821082138212821582148216820E948C
:104F700098270895FC0111821082138212821582F3
:104F8000148216820E9498270895FC0180819181E5
:104F90000E94B32B0895FC01808191810E94B32B64
:104FA000089581E090E00E94AA16089580E090E0C4
:104FB0000E94AA160895CF93DF93482F50E0CA01AC
:104FC00088519E4FFC0134914C525E4FFA018491FE
:104FD000882369F190E0880F991FFC01EA54FE4F85
:104FE000A591B491FC01E054FE4FC591D491662384
:104FF00051F42FB7F8948C91932F909589238C932B
:10500000888189230BC0623061F42FB7F8948C91AA
:10501000932F909589238C938881832B88832FBF2E
:1050200006C09FB7F8948C91832B8C939FBFDF9120
:10503000CF910895482F50E0CA0184509E4FFC0143
:105040002491CA0188519E4FFC0194914C525E4FAD
:10505000FA013491332309F440C0222351F1233063
:1050600071F0243028F42130A1F0223011F514C061
:105070002630B1F02730C1F02430D9F404C080913B
:1050800080008F7703C0809180008F7D80938000A7
:1050900010C084B58F7702C084B58F7D84BD09C0F0
:1050A0008091B0008F7703C08091B0008F7D809396
:1050B000B000E32FF0E0EE0FFF1FE054FE4FA5918C
:1050C000B4912FB7F894662321F48C91909589239D
:1050D00002C08C91892B8C932FBF08955058BB2709
:1050E000AA270ED075C166D130F06BD120F031F413
:1050F0009F3F11F41EF45BC10EF4E095E7FB51C134
:10510000E92F77D180F3BA176207730784079507F1
:1051100018F071F49EF58FC10EF4E0950B2EBA2FA6
:10512000A02D0B01B90190010C01CA01A0011124AD
:10513000FF27591B99F0593F50F4503E68F11A1659
:10514000F040A22F232F342F4427585FF3CF4695EA
:1051500037952795A795F0405395C9F77EF41F160C
:10516000BA0B620B730B840BBAF09150A1F0FF0FD6
:10517000BB1F661F771F881FC2F70EC0BA0F621FC2
:10518000731F841F48F4879577956795B795F795B2
:105190009E3F08F0B3CF9395880F08F09927EE0F44
:1051A000979587950895D9D008F481E008950CD09B
:1051B0000FC107D140F0FED030F021F45F3F19F06D
:1051C000F0C0511139C1F3C014D198F39923C9F338
:1051D0005523B1F3951B550BBB27AA2762177307FD
:1051E000840738F09F5F5F4F220F331F441FAA1FB1
:1051F000A9F333D00E2E3AF0E0E830D09150504071
:10520000E695001CCAF729D0FE2F27D0660F771F1E
:10521000881FBB1F261737074807AB07B0E809F000
:10522000BB0B802DBF01FF2793585F4F2AF09E3F95
:10523000510568F0B6C000C15F3FECF3983EDCF367
:10524000869577956795B795F7959F5FC9F7880F0E
:10525000911D9695879597F90895E1E0660F771F60
:10526000881FBB1F621773078407BA0720F0621BF1
:10527000730B840BBA0BEE1F88F7E095089504D0EA
:105280006894B111D9C00895BCD088F09F5790F0B0
:10529000B92F9927B751A0F0D1F0660F771F881F5B
:1052A000991F1AF0BA95C9F712C0B13081F0C3D076
:1052B000B1E00895C0C0672F782F8827B85F39F014
:1052C000B93FCCF3869577956795B395D9F73EF4BA
:1052D00090958095709561957F4F8F4F9F4F089562
:1052E000E89409C097FB3EF4909580957095619580
:1052F0007F4F8F4F9F4F9923A9F0F92F96E9BB2736
:105300009395F695879577956795B795F111F8CFB1
:10531000FAF4BB0F11F460FF1BC06F5F7F4F8F4F1C
:105320009F4F16C0882311F096E911C0772321F012
:105330009EE8872F762F05C0662371F096E8862FAA
:1053400070E060E02AF09A95660F771F881FDAF701
:10535000880F9695879597F90895990F0008550F2E
:10536000AA0BE0E8FEEF16161706E807F907C0F0EB
:1053700012161306E407F50798F0621B730B840BF3
:10538000950B39F40A2661F0232B242B252B21F4CD
:1053900008950A2609F4A140A6958FEF811D811D6D
:1053A000089597F99F6780E870E060E008959FEFA7
:1053B00080EC089500240A941616170618060906AC
:1053C000089500240A94121613061406050608957B
:1053D000092E0394000C11F4882352F0BB0F40F403
:1053E000BF2B11F460FF04C06F5F7F4F8F4F9F4F43
:1053F000089557FD9058440F551F59F05F3F71F0C5
:105400004795880F97FB991F61F09F3F79F087952B
:105410000895121613061406551FF2CF4695F1DFB4
:1054200008C0161617061806991FF1CF8695710544
:10543000610508940895E894BB2766277727CB0178
:1054400097F908958ADF08F48FEF08950BD0C0CF45
:10545000B1DF28F0B6DF18F0952309F0A2CFA7CF6F
:105460001124EACFC6DFA0F3959FD1F3950F50E04A
:10547000551F629FF001729FBB27F00DB11D639F06
:10548000AA27F00DB11DAA1F649F6627B00DA11DAC
:10549000661F829F2227B00DA11D621F739FB00D52
:1054A000A11D621F839FA00D611D221F749F3327C2
:1054B000A00D611D231F849F600D211D822F762F5B
:1054C0006A2F11249F5750408AF0E1F088234AF058
:1054D000EE0FFF1FBB1F661F771F881F91505040A4
:1054E000A9F79E3F510570F05CCFA6CF5F3FECF36C
:1054F000983EDCF3869577956795B795F795E79590
:105500009F5FC1F7FE2B880F911D9695879597F9A0
:10551000089523DF880B990B0895629FD001739F34
:10552000F001829FE00DF11D649FE00DF11D929F3F
:10553000F00D839FF00D749FF00D659FF00D99277E
:10554000729FB00DE11DF91F639FB00DE11DF91FA2
:10555000BD01CF011124089597FB092E07260AD01B
:1055600077FD04D02ED006D000201AF470956195F6
:105570007F4F0895F6F7909581959F4F0895A1E28A
:105580001A2EAA1BBB1BFD010DC0AA1FBB1FEE1FBD
:10559000FF1FA217B307E407F50720F0A21BB30B08
:1055A000E40BF50B661F771F881F991F1A9469F784
:1055B00060957095809590959B01AC01BD01CF01E0
:1055C0000895AA1BBB1B51E107C0AA1FBB1FA6174A
:1055D000B70710F0A61BB70B881F991F5A95A9F79C
:1055E00080959095BC01CD010895EE0FFF1F0590A9
:1055F000F491E02D0994EF920F931F93CF93322FE4
:10560000C02F47FF02C0A4E101C0A4E0E42FFF27A0
:10561000E7FDF095F7FF03C0F095E195FF4F4C2FA4
:10562000512F2E2F032FEA2E0E9409308C2F912FFD
:10563000CF911F910F91EF900895CF93DF93AC011D
:105640008230910510F442E050E0E091EB06F091D9
:10565000EC0620E030E0A0E0B0E024C08081918141
:1056600084179507D0F08417950771F48281938190
:10567000109729F013969C938E9312972CC09093B9
:10568000EC068093EB0627C02115310519F082172F
:10569000930718F49C01BD01EF0192818381DF0122
:1056A000E92FF82F3097D1F621153105F9F0C9010E
:1056B000841B950B8430910580F48A819B81611550
:1056C000710521F0FB019383828304C09093EC0663
:1056D0008093EB06FE01329642C0FE01E80FF91FEF
:1056E0004193519302979983888339C08091E90649
:1056F0009091EA06009741F480919105909192056E
:105700009093EA068093E90620918F0530919005E9
:105710002115310541F42DB73EB780919305909145
:105720009405281B390BE091E906F091EA06E2178F
:10573000F30798F42E1B3F0B2417350770F0CA01AE
:1057400002962817390748F08E0F9F1F9093EA069C
:105750008093E9064193519302C0E0E0F0E0CF016D
:10576000DF91CF9108950F931F93CF93DF939C0107
:10577000009709F48CC0DC01129713961C921E92BC
:1057800012976091EB067091EC066115710589F432
:105790008D919C911197820F931F2091E906309172
:1057A000EA062817390769F5B093EA06A093E906D7
:1057B0006EC0FB0140E050E001C0FC01EA17FB07AE
:1057C00030F482819381AF010097B9F71FC0E901DE
:1057D0002297FB83EA8308811981C901800F911FF9
:1057E0008E179F0759F480819181800F911F029637
:1057F00099838883828193819B838A834115510594
:1058000029F4B093EC06A093EB0641C0FA01B383F0
:10581000A283C191D191EC0FFD1FAE17BF0781F498
:10582000F901929182918C0F9D1F0296DA011196D7
:105830009C938E938281938113969C938E9312975F
:10584000E0E0F0E002C0FB01BC01DB0112968D91AB
:105850009C9113970097B9F7CB0102962D913C913B
:105860001197820F931F2091E9063091EA062817BD
:10587000390769F4309729F41092EC061092EB0680
:1058800002C0138212827093EA066093E906DF91E8
:10589000CF911F910F910895A2E0B0E0E2E5FCE204
:1058A0000C94F2328C01009729F4CB010E941D2B3D
:1058B0008C01B8C0DC01A60FB71FFC013297AE17F0
:1058C000BF0708F4ADC02081318126173707B0F03B
:1058D0002530310508F4A6C0C9010497861797073B
:1058E00008F4A0C022503040261B370B2D933D9367
:1058F000CD01718360830E94B32B94C06B01C21AE7
:10590000D30A5C01A20EB31EE091EB06F091EC0607
:1059100040E050E08824992449C0EA15FB05E1F5F0
:10592000E080F180C70102968C159D05A8F1A701C2
:105930004C195D09CA0102960F2EFEEFCF2EFFEF24
:10594000DF2EF02DC00ED11E8530910578F08281BA
:10595000938113969C938E93129711965C934E931A
:10596000F601718360839A2F8B2F0AC0C9010296BA
:105970008E0D9F1DD60111969C938E9392818381EB
:105980008114910421F0F401928383834BC090939E
:10599000EB068093EC0646C0808191814817590739
:1059A00008F4AC01828193814F01FC01309709F02A
:1059B000B4CF8091E9069091EA068A159B05E9F437
:1059C00046175707D0F480918F0590919005009766
:1059D00041F48DB79EB72091930530919405821BB9
:1059E000930BA817B907E0F4B093EA06A093E90671
:1059F000F80132977183608315C0CB0129833A8304
:105A00000E941D2B7C0129813A81009749F0B80141
:105A1000A9010E94442DC8010E94B32B870102C036
:105A200000E010E0C8012296ECE00C940E33FC017B
:105A300088279927E89421912032E9F3293010F042
:105A40002E30C8F32B3241F02D3239F4689404C063
:105A50000E94AE2D820F911D219120532A30C0F358
:105A60001EF4909581959F4F0895911102C5803243
:105A700019F089508550D0F70895FB01DC0105909D
:105A80000D920020E1F70895FB01DC0102C00190B6
:105A90000D9241505040D8F70895DC0101C06D933C
:105AA00041505040E0F70895FB01DC018D910190D9
:105AB00080190110D9F3990B0895FB01DC010190C5
:105AC0000D920020E1F70895FB01DC0141505040A8
:105AD00048F001900D920020C9F701C01D9241507D
